:020000040800F2
:100000000000032089050008A9220008AB2200088F
:10001000AD220008AF220008B12200080000000055
:10002000000000000000000000000000F185000852
:10003000B32200080000000081860008F17E00085D
:10004000D9050008D9050008D9050008D905000818
:10005000D9050008D9050008B5220008D90500080F
:10006000BB220008D9050008D9050008D9050008F9
:10007000D9050008D9050008D9050008D9050008E8
:10008000D9050008D9050008D9050008D9050008D8
:10009000D9050008D9050008D9050008D9050008C8
:1000A000D9050008C1220008CD220008D9050008A2
:1000B000D9050008D9050008D9050008D9050008A8
:1000C000D9050008D9050008D9050008D905000898
:1000D000D9050008D9050008D9050008D905000888
:1000E000D9050008D9050008D9050008D905000878
:1000F000D9220008D9050008D9050008D90500084B
:10010000D9050008D9050008D9050008D905000857
:10011000D9050008D9050008E5220008D90500081E
:10012000F1220008D9050008D9050008D905000802
:10013000D9050008D9050008D9050008D905000827
:10014000D9050008D9050008D9050008D905000817
:10015000D9050008D9050008D9050008D905000807
:10016000D9050008D9050008D9050008D9050008F7
:10017000D9050008D9050008D905000800000000CD
:10018000D9050008D9050008D9050008D9050008D7
:10019000D9050008D9050008D9050008D9050008C7
:0C01A000FD220008D90500080923000812
:1001B00010B5054C237833B9044B13B10448AFF3A1
:1001C00000800123237010BD6401002000000000A6
:1001D0006C19020808B5034B1BB103490348AFF380
:1001E000008008BD00000000680100206C190208B2
:1001F00001F0FF01102A2BDB10F0070F08D010F8D8
:10020000013B013A8B422DD010F0070F42B3F6D1DB
:10021000F0B441EA012141EA014122F007047FF0F4
:1002200000070023F0E80256083C85EA010586EA4B
:10023000010685FA47F5A3FA87F586FA47F6A5FA87
:1002400087F68EB9EED1F0BC01F0FF0102F0070293
:1002500032B110F8013B013A83EA010313B1F8D13E
:100260000020704701387047002D06BF354603381F
:10027000073815F0010F07D1013015F4807F02BF58
:10028000013015F4C03F0130F0BC0138704700BFA9
:1002900053B94AB9002908BF00281CBF4FF0FF31ED
:1002A0004FF0FF3000F06EB9ADF1080C6DE904CEEF
:1002B00000F006F8DDF804E0DDE9022304B0704741
:1002C0002DE9F047089D04468C46002B40F08380C2
:1002D0008A42174647D9B2FA82F242B1C2F12000EF
:1002E00024FA00F09140974040EA010C94404FEA14
:1002F0001748230CBCFBF8F61FFA87FE08FB16C153
:1003000043EA014306FB0EF1994209D9FB1806F1B5
:10031000FF3080F01981994240F21681023E3B4441
:100320005B1AA4B2B3FBF8F008FB103344EA0344B1
:1003300000FB0EFEA64509D93C1900F1FF3380F001
:100340000581A64540F2028102383C4440EA06405D
:10035000A4EB0E0400261DB1D4400023C5E90043E0
:100360003146BDE8F08702B9FFDEB2FA82F2002A18
:1003700050D1CB1B4FEA174E1FFA87F80126B3FB6B
:10038000FEFC210C0EFB1C3341EA034108FB0CF37D
:100390008B4207D979180CF1FF3002D28B4200F260
:1003A000E9808446C91AA3B2B1FBFEF00EFB10111E
:1003B00043EA014408FB00F8A04507D93C1900F1C5
:1003C000FF3302D2A04500F2D9801846A4EB0804FE
:1003D00040EA0C40BFE78B4209D9002D00F0B18004
:1003E0000026C5E9000130463146BDE8F087B3FA82
:1003F00083F6002E4AD18B4202D3824200F2B880AB
:10040000841A61EB030101208C46002DA8D0C5E9B8
:10041000004CA5E7C2F1200320FA03F6974001FA49
:1004200002F04FEA174ED9403043030CB1FBFEF601
:100430001FFA87F80EFB161143EA014306FB08F189
:10044000994204FA02F409D9FB1806F1FF3C80F046
:100450008D80994240F28A80023E3B445B1A81B211
:10046000B3FBFEF00EFB103341EA034100FB08F33F
:100470008B4207D9791800F1FF3C73D28B4271D9B6
:1004800002383944CB1A40EA064678E7C6F1200C18
:1004900003FA06F422FA0CF31C4320FA0CF701FAD3
:1004A00006F34FEA144E21FA0CF11F433B0CB1FB4B
:1004B000FEF91FFA84F80EFB191143EA014109FB0A
:1004C00008FA8A4502FA06F200FA06F308D961181A
:1004D00009F1FF3048D28A4546D9A9F102092144E1
:1004E000A1EB0A01BFB2B1FBFEF00EFB101147EA0F
:1004F000014700FB08F8B84507D9E71900F1FF31BB
:100500002ED2B8452CD90238274440EA0940A7EB3F
:100510000807A0FB02894F45C64649461AD317D0A3
:100520005DB1B3EB0E0267EB010707FA0CFCF2407A
:100530004CEA0202F740C5E9002700263146BDE833
:10054000F0872E4628460BE70646E9E61846FDE604
:100550004345E5D2B8EB020E69EB04010138DFE751
:100560000846D2E760468DE78146B9E7664675E7FB
:1005700030464AE7ACF1020C394413E702383C44F8
:1005800024E700BF704700BFDFF834D0002103E04C
:100590000C4B5B58435004310B480C4B42189A42A9
:1005A000F6D30B4A02E0002342F8043B094B9A427F
:1005B000F9D304F08BFC20F0A9F900F0B3FE7047EA
:1005C00000000320A87F0408000000206401002030
:1005D0006401002070610120FEE700F019BC00F00A
:1005E00087BC704710B50421044620F016F9204658
:1005F00010BD000038B50C4B0C4C18800C4B822001
:1006000019806368984740F6110398420AD1094D52
:1006100023682C60822098472B688220DB689847EB
:10062000002038BD0120FCE7800100204C000020A4
:1006300082010020840100204FF4A071F020FFF718
:10064000D9BF0000F7B52D4D2B6804461B698220E9
:10065000984780B22080002843D02B680DF1060215
:100660005B6901A982209847BDF80620A2F5B47203
:1006700092B20A2A37D90B23B2FBF3F2204B1B8824
:100680009A4201D95A1E92B2BDF8043040F6B831F0
:100690008B422AD8C3F571630E339BB20F21B3FB93
:1006A000F1F3184909888B4201D94B1E9BB2164EB3
:1006B000164D30682F68834281B28CBF591AC91A0F
:1006C000B8B2BA428CBF101A801A89B280B2014403
:1006D0000529C8BF33603368C8BF2A6063802B68B0
:1006E000A38003B0F0BD0022CEE7C3F56D630833ED
:1006F0009BB20E2BD2D80023D9E700BF8401002083
:100700008201002080010020880100208C0100204F
:1007100037B568460D461446FFF794FFBDF8000054
:1007200030B1BDF802302B60BDF8043023600120E9
:1007300003B030BD704770477047012380F87410D4
:1007400080F8753070470020704700207047836B39
:100750000BB10846184770474FF6FF707047406866
:1007600003689B69184770477047704700F062BC88
:1007700008B5036804469B6F9847236820461B6FA3
:10078000984700F0D7F8236820469B6E98472920A9
:1007900001F0ECF800F0CEF8236820469B6E9847F5
:1007A000F8E710B504460BF045F823682046D3F867
:1007B000A030BDE81040184700F02EBC00F032BC5D
:1007C00000F056BC00F004BC00F056BC00F05EBC6B
:1007D00000F008BC08B531B90A4B0B4A0B484FF47E
:1007E000257120F049F8C0E90F12003A0849436426
:1007F00018BF01220A70003B064A18BF012313707C
:1008000008BD00BFE41902081C1A02086A1A02088F
:1008100006FC002007FC00200AF0C5B910B57C21B9
:1008200004461FF0FAFF204610BD90F877301BB148
:10083000406803681B6818471846704730B590F841
:10084000341090F87440104B8C421A780DD05AB97D
:100850000E4A0F490F4814880F4D0C8001881180F3
:100860002980048001221A7030BD002AFCD009487A
:10087000074A01881180054A074D14882C80118091
:1008800004800022EFE700BF00FC0020FCFB0020FA
:1008900002FC0020FEFB002004FC0020012108B522
:1008A0000022084607F0C6FB0A4B186028B90A4B1D
:1008B0000A4A27210A481FF0DFFF002204210120F5
:1008C00007F056FC074B186018B9074B034A2B2159
:1008D000F0E708BD940100207C1B0208C51B02083C
:1008E000F41B020890010020481C0208024B4FF044
:1008F000FF31186807F0E8BB94010020014B18682D
:1009000007F00EBC94010020024B0021186807F08C
:10091000DBBB00BF94010020FFF7F0BF0348044990
:10092000006800231A4607F05FBC00BF900100205A
:100930000400002013B5084C00231A4601A92068C2
:1009400007F082FC20684FF0FF33002201A907F076
:100950007BFC02B010BD00BF9001002007F04CBB33
:1009600003685B6C18470120704703689B6A18474F
:1009700082B0002301930D4B1A6B42F400021A63FC
:100980001A6B02F400020192019A1A6942F4000201
:100990001A611A6922F400021A61054B054A1A61AC
:1009A000054B4FF080629A6002B0704700380240F9
:1009B00040600120C509000800E100E040F2EF308E
:1009C00070470000024B1B68586803685B69184752
:1009D00008FC002008B50B280BD8DFE800F0120651
:1009E000100A0A0A0A0808080808012008BD05209C
:1009F000FCE7054B054A064865211FF03DFF002036
:100A0000F4E70220F2E700BF8A1C0208A51C0208D6
:100A1000F11C020808B50A2809D8DFE800F0100622
:100A20000E080808080606060600012008BD054B4A
:100A3000054A064886211FF01FFF0020F6E7022026
:100A4000F4E700BF8A1C0208431D0208F11C0208DB
:100A50002DE9F84391F81D800C464046FFF7BAFF98
:100A6000A77F05463846FFF7B5FF06463846FFF72D
:100A7000D1FFA18A628B534B521A1A649A61228B5E
:100A8000521A1A61E28A586342EA01425A642169A1
:100A90006268D963DA60D4F800C094F81C90BCF1A5
:100AA000800F4FEA09629E463BD015D8BCF1200F5B
:100AB00045EA020079D0BCF1400F76D0BCF1040FBA
:100AC0002BD0404B2A4342F40032B845DA6114BFC0
:100AD0003D4A40F201221EE0BCF5807F07D0BCF504
:100AE000007FEED142F4003242F0090203E042F40A
:100AF000003242F00A02DA61E0680202440102F4C4
:100B0000780204F47C44C0002243C0B202431A625B
:100B10002E4A5E6259611A6043E040F40030D861A9
:100B2000F6E7A0682A4342F40032041DDC62DA6171
:100B300002785E62596142B1012A1CD0244B254AD9
:100B400025484FF488711FF097FE4288D969501EDE
:100B500021F47F4222F0100242EA0022DA610125EC
:100B6000184CE36943F02003E361E3699B0613D566
:100B7000FFF7F4FEF9E74288D969501E21F47F425D
:100B800022F0100242EA0022B9F1FF0542F0100201
:100B900018BF0125DA61E3E71023A3601DB10B4BF9
:100BA0002360BDE8F883084BFAE7084B40F40030B7
:100BB000CEF81C00CEF82460CEF81410CEF8003029
:100BC000EFE700BF00B00240010201000102020095
:100BD000901D0208AA1D0208F11C0208F8B58E7FBC
:100BE0000C463046FFF716FFA78AE18A628B1E4B40
:100BF0002569586341EA0741D21B5964DD631A64D1
:100C00002168082918D19A611A615862217F174A10
:100C100042EA0162DA61E1680A02480102F47802FC
:100C200000F47C40C9000243C9B20A431A62104A68
:100C30005D61DD601A60F8BD0022D8611A61E1686B
:100C40001EB99963084B0B4AF4E70A02480102F403
:100C5000780200F47C40C900C9B202430A43217FF4
:100C600042EA01629A63EDE700B002400900010028
:100C70000102020001020300054B0360054B4FF027
:100C80008062C3F88820BFF34F8FBFF36F8F704728
:100C9000F41D020800E100E010B50446FFF7ECFF88
:100CA00020464FF442611FF0B8FD204610BD000001
:100CB00070B5044625460A4B0C300026606026724B
:100CC000667245F8203B602229460AF0EDFE04F5E5
:100CD0004263EE602035AB42FBD1204670BD00BFC1
:100CE000F41D0208012070470C2070470C2303FB01
:100CF0000100083070470C2303FB010008307047E7
:100D00000120704741F6D050704741F6D05303FBA5
:100D100001000830704741F6D05303FB0100083052
:100D20007047012070471020704700EB0110083019
:100D3000704700EB011008307047084601F014BC02
:100D400010B5034B0360044609F068FA204610BD55
:100D5000AC1E020810B50446FFF7F2FF204614212E
:100D60001FF05BFD204610BD10B5034B0360044629
:100D700009F054FA204610BD781E020810B504464A
:100D8000FFF7F2FF204641F6D8511FF046FD2046FE
:100D900010BD000010B5034B0360044609F03EFA95
:100DA000204610BD441E020810B50446FFF7F2FFAE
:100DB000204618211FF031FD204610BD10B5094B0B
:100DC0000360044600F5F0500430FFF7B9FF04F16A
:100DD0002C00FFF7C9FF04F11400FFF7DBFF2046EA
:100DE00010BD00BFE01E020808B50248FFF7E6FF8D
:100DF00008BD00BF9C01002010B50446FFF7DEFFD0
:100E0000204641F674711FF008FD204610BD000019
:100E10002DE9F34101F0EAFA054601F0EBFA00246E
:100E20000146234628462246009412F041F9244BFD
:100E3000244A254D1A60204603F02AFA234812F06E
:100E400079F82B78BFF35B8FDB0733D428461FF08C
:100E5000E6FC78B31E4C1F4F1F4B236007F11806AA
:100E600004F1140004F12C086060C4F80880E76005
:100E7000266109F0D5F9194B6361404609F0D0F9B4
:100E8000174BE362384609F0CBF9164B3B6007F18C
:100E9000140003F079FA224607F11401304603F0FA
:100EA00069FA304601F060FB28461FF0C4FC0E488A
:100EB0001FF000FD0D4802B0BDE8F041FFF756BC41
:100EC00084FC0020B02D00209801002008000020A4
:100ED0009C010020A01F0020E01E0208441E020802
:100EE000781E0208AC1E0208E90D0008342D00200F
:100EF0000148FFF73DBC00BF342D002070B5244CE5
:100F0000244E254B254D23603046FFF7D1FE284661
:100F100015F052F9224B2348DC6000224FF4807117
:100F2000C3E912122049036020481A85C3E9191247
:100F3000C3E901654FF080711D4D5967F02401210F
:100F400004804FF4A070C3E90422C3E90622C3E978
:100F50000822C3E90E22C3E91022C3E91422C3E91F
:100F6000162283F82A20DA621A861A6683F86C2021
:100F70001A6783F8781028800E4D83F834102A7091
:100F80000D4A14800D4A10800D4A1A6070BD00BFD2
:100F90001021002014210020D4190208B42D0020B3
:100FA000342D002008FC002001000001FCFB002083
:100FB000FEFB002000FC002002FC002004FC0020BE
:100FC000B81A02080148FFF757BE00BF14210020DD
:100FD000034B902283F85A2383F85823704700BFAD
:100FE00000E100E0094A0A49D3680A48C3F30A034A
:100FF000013B9BB20B801169C1F30A0101390180E9
:101000001364536B43F0010353637047006801405E
:101010002E2E00202C2E0020014B986A704700BF16
:1010200084680140024B0122996243F8602C7047AA
:101030008468014070B5044609F007FE2368DD6D41
:101040000EF068FF01462046A8472368054AD3F8FA
:1010500080502046AC460023BDE87040A2F5163112
:10106000604700BF005802D009F0D6BD09F0E0BDCE
:1010700009F09FBD09F0F7BE034B4FF080629A6004
:101080004FF080729A60704700E100E0084B4FF02B
:101090008062C3F88820BFF34F8FBFF36F8F4FF08C
:1010A0008072C3F88820BFF34F8FBFF36F8F7047F4
:1010B00000E100E0134B144A1B6C11888B4210B501
:1010C000124C13D1124B198805F04AFC226892F891
:1010D0006630013382F86630FFF720FC20680AF0A2
:1010E000A9FBBDE810400020FFF724BB05F038FC49
:1010F0000020FFF720FB20680368BDE81040DB6993
:10110000184700BF006801402E2E002008FC002078
:101110002C2E002007B50B4B00220192196B41F4D5
:10112000800119631B6B03F480030193114638207F
:10113000019B04F027FA382003B05DF804EB04F0BB
:1011400053BA00BF003802407FB5114C1022002175
:1011500068461FF01DFC0F4B002501262046C4E900
:101160000035A5602561267684F82050E560E661AB
:1011700084F83050666103F0F7FE0D23694620467F
:10118000CDE90036029504F037F804B070BD00BF19
:10119000BC5E0120002201407FB5114C10220021CD
:1011A00068461FF0F5FB0F4B002501262046C4E9D9
:1011B0000035A5602561267684F82050E560E6615B
:1011C00084F83050666103F0CFFE0D236946204657
:1011D000CDE90036029504F00FF804B070BD00BFF1
:1011E000542E01200021014070B5102288B0002546
:1011F00029460DEB0200174C0395CDE901551FF070
:10120000C7FB154BA5600126C4E900352046134BEA
:10121000A3622561267684F82050E562E560E661E8
:1012200084F83060666103F09FFE17224FF400439C
:1012300001A92046CDE90123039504F069F90D23A6
:1012400004A92046CDE90436069503F0D5FF08B081
:1012500070BD00BF745E0120002001400100000F3E
:1012600007B5064BADF806001B68054801220DF1D5
:10127000060106F0C1F803B05DF804FB1000002081
:101280001CFF002008B54FF47A7006F0C7FEFAE79D
:1012900070B594B0102200210AA81FF079FB00213C
:1012A000142203A81FF074FB00251C4B01951A6C37
:1012B00042F080521A641B6C03F080530193019B2F
:1012C000174B02951A6842F440421A601B6803F4F7
:1012D000404302930122029B4FF48033CDE908235F
:1012E00002264FF480030424CDE90E6308A890235E
:1012F000CDE91043CDE9126405F050FB0F23CDE991
:1013000003364FF4A0514FF48053CDE9061303A8E0
:101310002146059505F01CFD14B070BD0038024053
:101320000070004080B59AB000F022FC03F0DCFDB4
:10133000FFF7AEFF142200210DA800241FF028FBA8
:10134000C54B00941A6BC54842F010021A631A6B21
:1013500002F010020092009A01941A6B42F02002EF
:101360001A631A6B02F020020192019A02941A6B1E
:1013700042F080021A631A6B02F080020292029A13
:1013800003941A6B42F004021A631A6B02F004020F
:101390000392039A04941A6B42F001021A631A6BC7
:1013A00002F001020492049A05941A6B42F00202C0
:1013B0001A631A6B02F002020592059A06941A6BE0
:1013C00042F040021A631A6B02F040020692069A3B
:1013D00007941A6B42F008021A631B6B03F00803B0
:1013E000079322461021079B04F0D0FC9C4822461C
:1013F000042104F0CBFC9B4822464FF4405104F0FA
:10140000C5FC224698484FF4C04104F0BFFC4FF0A1
:1014100004084FF4881591480F940DA901264FF048
:10142000100A4FF00309CDE90D8504F0C9FB8B4884
:10143000CDF840900DA90227CDE90DA60F9404F038
:10144000BFFB874810970DA9CDE90D860F9404F0D6
:10145000B7FB86480F940DA9CDE90D6504F0B0FBEC
:101460004FF440537F48824D0DA9CDE90D36CDE9AB
:101470000F4704F0A5FB4FF4C0437B480DA9CDE90D
:101480000D36CDE90F4404F09BFB39462246062079
:1014900004F078F8062004F0A7F821462246082038
:1014A00004F070F8082004F09FF87248724B036053
:1014B00004F0A8F8714A724B2C62C5E90023284653
:1014C0004FF48043C5E90434C5E90244C5E9064444
:1014D00004F04AFE5146284605F086F82146284683
:1014E00005F0A1F867486849684D84624FF482733B
:1014F000C0E900134FF40073C0E9063A0A23C3623F
:10150000C0E90244C0E90444C0E9084405F018FFFA
:101510005F4BC5F810A0C5E9003640204FF4C073FA
:10152000C5E905034FF40063C5E908344FF40053DF
:10153000AB620DA907232846CDE90E38CDE9103955
:101540004FF0080AC5E90248CDE91277EC610D9722
:1015500005F002FE4FF6FF7209A92846CDE90AA65A
:10156000099608940C9405F017FE304603F0E8FC49
:101570004FF6FF7209A92846CDE9097ACDE90B6437
:1015800005F00AFE4FF6FF7209A92846CDE9099A2F
:10159000CDE90B8405F000FE4FF40C730893089B13
:1015A0000C934FF6FF7209A92846CDE9098A0B96DC
:1015B00005F0F2FD40F26A51284605F004FE34229F
:1015C00021460DEB02001FF0E3F9324D324BAC86A1
:1015D000C5E900340923C5E905361D2340F20D1C79
:1015E000C5E9073940F24313C5E909C340F2171EA4
:1015F00040F247132846C5E90BE3C5E902442C61D4
:1016000085F8364005F0B4F8FF21F022CDE9121438
:101610004FF4806805214FF4A073CDE90E24CDE985
:101620001481CDE916420DA922462846CDE910378E
:101630001A4D18930D94ADF864408DF8664005F08E
:1016400062F9174B2B601B68DFF85C9098472B689A
:10165000144DDB682AE000BF003802400010024051
:1016600000080240000C0240001802400000024046
:10167000C8FE0020E42E012000300240005C004043
:10168000E09304001CFF0020005001408060012016
:10169000400100A0EC2E012000680140342E002003
:1016A00014000020406001200044014098473B4B5B
:1016B000C5E90A47C5E90C442846C5E90034C5E92F
:1016C000027404F081F93146284604F035FA3448B2
:1016D000344D84601223C0E9009340F64E43C0E9C4
:1016E0000334846106F01EFAFFF714FD2E4A2F48DA
:1016F0002F4B304EC0E90023C0E90244C0E9044A40
:10170000C0E9064406F0D0FA2B482C4B846043F61F
:101710003F07C0E9003740F2CF73C0E9033484616A
:1017200006F000FA40F69F732846C5E90334C5E980
:101730000067AC60AC6106F0F5F9FEF74EFF204B98
:101740001C70FFF701FDFFF727FDFFF74DFD1D485A
:1017500003F0B0FC1C4803F0ADFC1C491C4840F6EB
:10176000B83203F01DFE1B4B5B7A1BB9736228462F
:1017700006F07AF806F0CAFB174A1848002106F06E
:10178000F1FB174B174A18600021174806F0EAFBD7
:10179000164B186006F0CCFBFEE700BF00B002401D
:1017A0009C2E0120045F0120001001404C5F0120AD
:1017B000A0EB0500001C0040905F012000480140A4
:1017C000302E0020BC5E0120542E012074FF00202A
:1017D000745E0120B8600120341F020885120008E1
:1017E000C4FE0020101F0208DF0500083C60012035
:1017F00008B5FFF78FFCFFF7A7FCFFF7CDFCFFF75D
:10180000F3FC074803F056FC064803F053FCBDE820
:1018100008400549054840F6B83203F0C1BD00BF95
:10182000BC5E0120542E012074FF0020745E012054
:1018300008B5054803F03CFE044803F0BFFCBDE8D2
:101840000840034803F0BABC745E0120542E012006
:10185000BC5E0120034B1A68536B23F001035363F2
:10186000704700BFEC2E0120034B1A68536B43F006
:1018700001035363704700BFEC2E0120704770478F
:101880007FB5094B8DF817201B6802930DF11702E5
:101890000123009201930A460146044804F00CFD1E
:1018A00007B05DF804FB00BF0C000020C8FE00205C
:1018B0007FB500238DF81730084B1B6802930A464A
:1018C00001230DF11701009101930146044804F032
:1018D00083FD9DF8170007B05DF804FB0C000020A5
:1018E000C8FE00201FB5084C24680092CDE90134E1
:1018F0000A4601230146054804F06EFD003818BF72
:10190000012004B010BD00BF0C000020C8FE002064
:1019100003F016BB08B506480022042104F036FA8D
:10192000BDE8084002480122042104F02FBA00BF9C
:101930000008024038B50B4D044601220A484FF416
:10194000005104F023FA00220421284604F01EFA74
:101950002046FFF785FC28460122BDE838400421D7
:1019600004F014BA00080240000C024038B50B4DD8
:10197000044600220A484FF4005104F007FA0022FE
:101980000421284604F002FA2046FFF769FC2846A5
:101990000122BDE83840042104F0F8B900080240F3
:1019A000000C0240F7B5144E144F05460C46304665
:1019B0000022042104F0EAF900224FF400513846D5
:1019C00004F0E4F92846FFF74BFC0D4B0D481B686B
:1019D000224601A905F0ACFE384601224FF4005121
:1019E000019C04F0D3F930460122042104F0CEF921
:1019F000204603B0F0BD00BF00080240000C0240CA
:101A0000100000201CFF002003F09ABA012838B50E
:101A1000044623D0042820D1284A294C1368294899
:101A200023F004031360284B5B682360274B0025D9
:101A30005D6205F019FF264B26485D6201221021E8
:101A400004F0A4F9244801224FF4005104F09EF957
:101A50002368C3F53B630733236038BD174A136817
:101A600023F0010313601D4B197EB1B9116821F0F9
:101A70000401116018761A4805F030FFFFF7D8FE10
:101A8000154822464FF4804104F080F9FFF7ECFE40
:101A9000BDE83840134805F0E7BE00221A765B7AAD
:101AA00023B90B4A0E48536205F0DEFE0A480022B5
:101AB0004FF4804104F06AF9EAE700BF003C0140BE
:101AC000386001209C2E0120106402400044014037
:101AD000001C00400010024000180240B8600120C5
:101AE000045F0120905F01200368184A934210B5FB
:101AF000044616D1FFF79CFE154805F0EFFE154B86
:101B0000154801221A701021002204F03FF9FFF756
:101B1000ABFE2268114B9A4217D1BDE8104003F08A
:101B2000FDB90F4A934209D1A2F540620D481368EE
:101B300043F00103136005F0D1FEEAE70A4A93423D
:101B4000E7D10420FFF762FFE3E710BD0044014046
:101B50009C2E0120302E002000100240001000407A
:101B600000480140905F0120001C004070470000C9
:101B7000044B40F64E421A8000221A765A601A81AF
:101B80009A707047B860012082B00E4B002200921C
:101B9000596C41F480415964596C01F480410091C1
:101BA00000990192196C41F0805119641B6C03F08B
:101BB00080530193019B0F216FF0010002B003F0ED
:101BC000E1BC00BF0038024070B506468CB014225C
:101BD000002107A81EF0DCFE33683F4A93423ED145
:101BE0003E4B3F4C002501955A6C42F480725A647A
:101BF0005A6C02F480720192019A02951A6B42F0BB
:101C000004021A631B6B099503F004030293029B01
:101C100008200323CDE9070307A9324803F0D0FFCA
:101C2000314B4FF4806CC4E900354FF48053C4E964
:101C300004C34FF4804E4FF48073C4E906E320469A
:101C40004FF44033C4E90255C4E9083503F000FD00
:101C500008B1FFF78BFFB463A6630CB070BD234AD5
:101C600093421FD11D4B00220392596C41F4007125
:101C70005964596C01F40071039103990492196B32
:101C800041F0040119631B6B03F004030493049BEC
:101C90001448099208210323CDE9071307A903F08B
:101CA0008FFFDAE7124A9342D7D10C4B00220592FC
:101CB000596C41F480615964596C01F4806105915B
:101CC00005990692196B41F0040119631B6B03F02F
:101CD00004030693069BDBE7002001400038024026
:101CE000D85F01200008024010640240002101403A
:101CF000002201400268094B9A4282B00BD10023B6
:101D00000193074B1A6B42F480521A631B6B03F466
:101D100080530193019B02B0704700BF0030024026
:101D20000038024007B50F4B02689A4216D10022D4
:101D3000A3F5F0430192196B41F4000119631B6B89
:101D400003F40003019305215A20019B03F01AFCC0
:101D50005A2003B05DF804EB03F046BC03B05DF815
:101D600004FB00BF00B002402DE9F043044689B0F7
:101D70001422002103A81EF00BFE2268244B9A4275
:101D800043D1244C244800250095236B43F00403E1
:101D90002363236B03F004030093009B0195236BE3
:101DA00043F001032363236B03F001030193019BC1
:101DB0004FF012094FF400734FF001080327042677
:101DC00003A9CDE90339CDE90587079603F0F8FEAD
:101DD0004FF480731148079603A9CDE90339CDE983
:101DE000058703F0EDFE0295236C43F400032364A2
:101DF000236C03F400030293029B236A43F4000361
:101E00002362236A23F40003236209B0BDE8F08350
:101E1000005C004000380240000802400000024020
:101E2000F0B599B004461422002107A81EF0B0FDB9
:101E300030220DEB020000211EF0AAFD22685D4B4E
:101E40009A4240F0B58008230C933223109300246B
:101E500004230CA81293159405F054F808B1FFF769
:101E600085FE554B00945A6C544842F080625A6487
:101E70005A6C02F080620092009A01941A6B42F050
:101E800020021A631A6B02F020020192019A029456
:101E90001A6B42F001021A631A6B02F001020292FD
:101EA000029A03941A6B42F002021A631A6B02F050
:101EB00002020392039A04941A6B42F040021A63DE
:101EC0001A6B02F040020492049A05941A6B42F0D5
:101ED00004021A631A6B02F004020592059A069432
:101EE0001A6B42F008021A631B6B03F00803069397
:101EF00002250E26069B0B964FF4806307A9CDE9B9
:101F00000735CDE9094503F05BFE41F658032C483F
:101F10000B9607A9CDE907350927CDE9094503F057
:101F20004FFE032327480B9707A9CDE90735CDE9D5
:101F3000094503F045FE4FF4706322480B9607A94C
:101F4000CDE90735CDE9094503F03AFE4FF40C63BE
:101F50001D480B9607A9CDE90735CDE9094503F0E2
:101F60002FFEC02319480B9607A9CDE90735CDE907
:101F7000094503F025FE082315480B9607A9CDE96E
:101F80000735CDE9094503F01BFE4FF4A0530E4879
:101F90000B9707A9CDE90735CDE9094503F010FEF8
:101FA00058200022052103F0EDFA582003F01CFB15
:101FB00019B0F0BD00680140003802400014024032
:101FC00000000240000402400018024000080240E5
:101FD000000C024010B5044688B01422002103A86A
:101FE0001EF0D6FC2268154B9A4224D103F56843B3
:101FF00000220192596C41F480115964596C01F42A
:102000008011019101990292196B41F0200119632D
:102010001B6B059203F0200302934FF46071029B47
:102020000223CDE9031303200523CDE9060303A909
:10203000034803F0C5FD08B010BD00BF00500140CB
:10204000001402401FB50368224A934215D1224B67
:1020500000220192596C41F4003159645B6C03F425
:102060000033019319201146019B03F08BFA1920CC
:1020700005B05DF804EB03F0B7BA184A934211D1EA
:10208000154B00220292596C41F4802159645B6C1B
:1020900003F4802302931A200121029B03F072FAB9
:1020A0001A20E5E70E4A934211D10B4B002203920E
:1020B000196C41F0800119641B6C03F080030393D9
:1020C0002C200321039B03F05DFA2C20D0E705B000
:1020D0005DF804FB00440140003802400048014024
:1020E000001C004010B5044688B01422002103A84B
:1020F0001EF04EFC2268154B9A4224D103F594330E
:1021000000220192596C41F010015964596C01F0A0
:102110001001019101990292196B41F001011963BB
:102120001B6B059203F0010302934FF4C061029B05
:102130000223CDE9031303200723CDE9060303A9F6
:10214000034803F03DFD08B010BD00BF0010014082
:10215000000002402DE9F0412C4B1C6886B0002C99
:1021600050D14FF00108C3F80080294B00949A6BBE
:10217000284842EA08029A639B6B039403EA080327
:102180000093022703260C25009B01A94FF63F036D
:10219000CDE90137CDE9046503F012FD1E48059530
:1021A00001A9CDE90187CDE9034603F009FD48F215
:1021B00033131A48059501A9CDE90137CDE9034646
:1021C00003F0FEFC4FF683731548059501A9CDE990
:1021D0000137CDE9034603F0F3FC4CF203731148D9
:1021E000059501A9CDE90137CDE9034603F0E8FCE7
:1021F00060230D48059501A9CDE90137CDE90346D6
:1022000003F0DEFC06B0BDE8F08100BF382E0020F0
:10221000003802400014024000080240001802404A
:1022200000100240000C02400004024030B501469C
:1022300089B00022362003F0A5F9362003F0D4F946
:102240000025154B02951A6C144C42F010021A64CA
:102250001B6C03F01003029301A903A8029B04F076
:1022600033FE04F011FE0E4B236040F2E733E360CF
:1022700040000C4BB0FBF3F0013860602046256154
:10228000A56005F04FFC20B9204605F0EDFA09B035
:1022900030BD0120FBE700BF00380240D4600120C0
:1022A0000010004040420F007047FEE7FEE7FEE7E7
:1022B000FEE77047012003F06FBD042003F06CBD02
:1022C000014805F027BB00BF9C2E0120014805F006
:1022D00021BB00BF905F0120014805F01BBB00BF80
:1022E000045F0120014805F015BB00BFD460012048
:1022F000014803F0ABBA00BFD85F0120014804F0E9
:10230000A5BA00BFEC2E0120014803F08BBB00BF33
:10231000406001200120704708B51EF0DFFA162347
:1023200003604FF0FF3008BD08B51EF0D7FA162342
:102330000360FEE770B50E4614460025A54201DB9A
:10234000204670BDAFF3008070550135F6E770B5DB
:102350000E4614460025A54201DB204670BD705D87
:10236000AFF300800135F6E74FF0FF3070474FF4D0
:1023700000534B60002070470120704700207047D9
:1023800008B50A4B1968024609B909491960186865
:10239000694602448A4206D91EF0A0FA0C23036063
:1023A0004FF0FF3008BD1A60FCE700BF3C2E002054
:1023B00070610120704710B5042104461EF02DFA0B
:1023C000204610BD012908B506D0022908D059B908
:1023D00001F0AAFF006808BD01F0A6FF4068FAE717
:1023E00001F0A2FF8068F6E70020F4E7004870479C
:1023F0006C1F02081020704713B5002451B1036808
:1024000001948DF8034001AA9C680DF10303A047D5
:1024100002B010BD0846FBE74089704780897047CD
:102420008088704783798088184480B27047C0796B
:1024300000F07F007047C079C0097047704710B541
:10244000082104461EF0E9F9204610BD704700F54A
:1024500096730868496803C37047704770474160C6
:10246000704770470123037270477047704710B47C
:10247000C26841685410034601EB6200D20748BFAE
:102480000A599B685DF8044B48BFD3581847436806
:102490002BB183682BB9C06800F001007047184663
:1024A00070470120704710B50C2104461EF0B5F9A5
:1024B000204610BD10B5102104461EF0AEF920468E
:1024C00010BD10B54FF4AC7104461EF0A6F92046BD
:1024D00010BD10B50DF01EFD0368BDE810401B6B6C
:1024E000184710B50446D0F83C0158B10368DB68C2
:1024F000984738B1D4F83C0103689B68984700239B
:10250000C4F83C3110BD0000F8B5044617460E462D
:102510000DF020FD104B0025C4E954760F4E1C60D1
:10252000C4E952550E4B306823600E4BC4E9503558
:10253000036829469B68C4E94E559847284601F030
:10254000A7FE336893F876200AB1D86C00B9986872
:1025500015F065FB2046F8BD74FC002008FC002047
:10256000FC230208E4230208064BC0F8483100238C
:10257000C0F84C3100F5A073C0F84401C0F83C31FC
:10258000704700BFC92600082DE9F84F074690683C
:10259000DDF828A0994603681B6A884614469847C8
:1025A00041F6CF53984205D8414B424AA3214248B5
:1025B0001EF062F9606803681B6A98470F2803D809
:1025C0003E4B3C4AA421F2E7E06803681B6A984747
:1025D0000B2803D83A4B374AA521E8E70DF09AFCBF
:1025E0000DF09EFCD9F8000010B10368DB68984735
:1025F000D9F8000010B103681B689847386810B11B
:1026000003685B699847D8F8000010B103685B68FD
:102610009847386810B103681B689847D8F80000DD
:1026200010B103689B689847E068036800215B6A03
:1026300098474FF0000B234B03600546C0F804B0E9
:1026400080F808B0A068036859465B6A9847064658
:1026500001F02EFF6068036859465B6A984731466F
:10266000044601F0A3FEC9F80050C8F800403E60DF
:10267000E4B1231DCAF800303368C4F808A030461E
:10268000DB68F4639847236820461B68984729460F
:1026900030460FF024F92B6828461B6998472B68B1
:1026A00028465B6998472046BDE8F88F2346E1E756
:1026B000BC2002084A2102084E2202089522020884
:1026C000382302084024020807B5D0F8543100939B
:1026D000D0F85021044B00F59C710448FFF754FFDB
:1026E00003B05DF804FB00BF68FC002064FC002020
:1026F000006A7047406A704770478B8880690A6833
:10270000DB0A50F823001044704710B5C2B1137BA8
:10271000B3B1547BD27A240204F4E0641443C26956
:1027200098B202EB840213888B4202D192F9020024
:1027300010BD05D8013880B204320028F3D1F7E784
:102740000020F5E710B5282104461EF066F8204663
:1027500010BD000030B589B00446BDF85050069554
:10276000BDF84C5005959DF8405004959DF83C509F
:1027700003959DF8385002959DF8345001959DF8C9
:10278000305000950EF0FEFB064B2360119BA361B9
:10279000129BE361159B2362169B6362204609B07E
:1027A00030BD00BF6424020800207047818070475C
:1027B000C180704701817047418170477047704701
:1027C00070477047704710B4C4880368121B848830
:1027D0001B6D091B12B25DF8044B09B218474FF686
:1027E000FF7383814FF0FF3303621368C36110608E
:1027F0007047806A704770477047704770477047EE
:1028000090F825201AB190F8242002B11860704782
:102810007047704770477047704770477047704700
:1028200070477047704770477047704770477047F0
:10283000704770B4C46845686610034605EB6400D1
:10284000E40748BFAC599B6848BFE35870BC1847C1
:1028500043682BB183682BB9C06800F00100704752
:10286000184670470120704730B4C268446855105C
:10287000034604EB6200D20748BF62599B6830BC34
:1028800048BFD358184743682BB183682BB9C06839
:1028900000F001007047184670470120704730B4BF
:1028A000C26844685510034604EB6200D20748BF73
:1028B00062599B6830BC48BFD358184743682BB156
:1028C00083682BB9C06800F0010070471846704754
:1028D0000120704790F82D3080F89A3080F85C30F5
:1028E000704790F82D3080F85C30704701463430E6
:1028F00091F82C3013B162310BF0C1BD6031FBE7B0
:1029000008B590F82C3033B1D0F8A830C0F8943026
:10291000FFF7ECFF08BDD0F8A430F7E710B564214D
:1029200004461DF07AFF204610BD10B54FF48361B8
:1029300004461DF072FF204610BD10B5102104465C
:102940001DF06BFF204610BD10B5102104461DF090
:1029500064FF204610BD10B5102104461DF05DFF38
:10296000204610BD10B5AC2104461DF056FF204690
:1029700010BD10B541F6C45104461DF04EFF20466F
:1029800010BD10B50446006B50B10368DB68984772
:1029900030B1206B036821469B68BDE810401847A2
:1029A00010BD00F2B452914202D10368DB6A1847AD
:1029B00000F5C662914202D103685B6BF7E700F550
:1029C000FE62914202D103689B6CF0E700F62C0294
:1029D000914202D103685B6CE9E700F6680291421C
:1029E00002D103681B6CE2E700F6A402914202D117
:1029F0000368DB6BDBE700F50E62914202D10368EE
:102A00009B6BD4E7704700F2AC628A4202D1036844
:102A10001B6B1847704710B400F61C148C4205D18C
:102A200003685DF8044BDB6C114618475DF8044BF6
:102A300070470B7970B590F82C6004460D469BB931
:102A40008EB9B3FA83F35B0984F82C3023682046EF
:102A5000D3F884309847236820465B69984716B1BD
:102A60002B79012B03D070BD002EFCD0E9E7236841
:102A70002046D3F88030BDE870401847074A02600E
:102A80000022C0E90122C0E90322C0E90522C0E911
:102A900007224FF480728284704700BF444D0208C1
:102AA00070B503680446DB6A1546984723682946D3
:102AB00020461B6BBDE87040184770B5036804469C
:102AC0005B6B154698472368294620469B6BBDE8FB
:102AD0007040184738B504461D46FFF7E1FFBDF9C1
:102AE000102029462046FFF7E8FF38BD0B8870B557
:102AF000A0F860300546138825F8623F0446284652
:102B000010F0EAFA0646284610F020FB31B202B275
:102B10002046FFF7D2FF23682046D3F88430BDE873
:102B20007040184710B52622044600211DF030FFE2
:102B30002046FFF7A3FF044B2360FF2384F82630D1
:102B40000023A362204610BD3848020870B5FF225A
:102B5000134E0272134A0260326892F87610002314
:102B6000C0E903330446436009B1D06C00B99068F2
:102B700003685B6A98473368B0FA80F5D86C6D09D2
:102B800028B103685B6A9847002808BF01252DB962
:102B9000054B064A06482C211DF06EFE204670BDEE
:102BA00008FC0020703C0208B42402081225020828
:102BB0004B25020810B52622044600211DF0E8FE30
:102BC0002046FFF75BFF074B2360074BA3624FF6DE
:102BD000FF73A3854FF47F020023C4E90C322387DF
:102BE000204610BD90470208B420020838B52622BE
:102BF00004460D4600211DF0CBFE2046FFF73EFFA8
:102C0000064B23602B88E384FF23204684F828307A
:102C100029460BF034FC204638BD00BF4C4A020860
:102C20002DE9F04F2DED108B05468FB00EF0DAFC3C
:102C30002A460026EA4BEE6342F8403B104609EE76
:102C4000902AFFF76FFF05F16C0305F19804184611
:102C50000593FFF767FFB42105F5F07220460AF0EF
:102C6000F7FF05F59669DF4BC5F8983048460AF03E
:102C7000BBFE05F59D63184605F5A0680393FFF7B5
:102C800065FFD94BC5F8E8344046C5F8FC640AF046
:102C90000DFB05F24457D54BC5F8003538460AF010
:102CA00005FB05F5B162D24BC5F84435104608EE78
:102CB000102AFFF7E3FECF4BC5F8883505F2B45272
:102CC0001046C5F8B0650CEE102A0BF0B1FB05F507
:102CD000BE621046DFF86CB30AEE102AFFF76AFFF7
:102CE00005F5C662C5F8F0B51046C5F82C660CEEC1
:102CF000902A0BF09DFB05F26C6210460AEE902ABA
:102D0000FFF758FF05F2AC62C5F86CB61046C5F87F
:102D1000A86608EE902AFFF7B1FE4FF47F42A5F8AF
:102D2000D8264FF0010285F8D026B34AC5F8AC2664
:102D300005F5DC624FF6FF7A0CA91046C5F8D4669B
:102D4000C5F8DC660492ADF830A0FFF74FFF3246BD
:102D50000498A5F80CA7A5F80EA73146FFF7A0FE2A
:102D6000049918EE900A07F003FBA44AC5F8AC26B4
:102D700005F5E2620BEE902A1046FFF71BFF1BEEF3
:102D8000901A18EE900AC5F810B7C5F84C67C5F848
:102D90005067C5F8546707F0EBFA05F5EB6210468B
:102DA0000BEE102AFFF706FF05F5F3620CA910469B
:102DB000C5F858B7C5F8946705F2C47B0DEE102A24
:102DC000ADF830A0FFF712FF5846FFF757FE894BCA
:102DD000C5F8C43705F5FE621046C5F8EC670DEE80
:102DE000902A0BF025FB05F62C0210460EEE102A59
:102DF0000BF01EFB05F6680210460EEE902A0BF053
:102E000017FB05F6A40210460FEE102A0BF010FB7C
:102E100005F50E6210460FEE902A0BF009FB05F641
:102E20001C12104605F6182A09EE102A07F016FEA5
:102E3000504609F06FF905F68C2210460792FFF70D
:102E400085FE694BC5F88C3A6D4BC5F8D43A6D4B8D
:102E5000C5F8DC3A6C4BC5F8E43A6C4BC5F8EC3A73
:102E60006B4BC5F8F43A6B4BC5F8FC3A4FF49651EE
:102E700005F60430C5F8A06AC5F8D85AC5F8E06A66
:102E8000C5F8E85AC5F8F06AC5F8F85AC5F8006BF5
:102E90000BF068FBF02319EE900A009332464FF4D2
:102EA000A0733146FFF716FE4FF07F43AB66F02369
:102EB00032460598009331464FF4A073FFF70AFE9F
:102EC000554BC5F894300121204609F0FBFFB4238F
:102ED00000933C224FF4A07331462046FFF7FAFDE1
:102EE0003346324631462046009609F022FF3346EB
:102EF000324631462046009609F007FD41F20402B1
:102F00003146204609F020FB404601210AF0DCF85A
:102F1000404642490AF040F8404612210AF0E6F9DC
:102F2000404601210AF0EFF9412385F82E3541464C
:102F3000204609F0A6FD384601210AF0C5F83846BA
:102F400037490AF029F838464FF4CD710AF0CEF926
:102F5000384601210AF0D7F93E2385F87235394603
:102F6000204609F08EFD484601210AF0ADF82D4BB0
:102F7000C5F8FC344846039908F0E8FE48460121AC
:102F80000AF040FDD123494685F8DE34204609F099
:102F900078FD9FED250ADFF8B090204609F0F0FF9C
:102FA0009FED220A204609F0EBFF9FED210A204603
:102FB00009F0E6FF9FED1F0A204609F0E1FF9FEDB3
:102FC0001E0A204609F0DCFF9FED1C0A204609F08E
:102FD000D7FF9FED1B0A204609F0D2FF00E100BF9A
:102FE00060290208C4260208503C02084C4402082A
:102FF000D4440208602F0208E8270208802802084B
:1030000018290208A329000830290208072A000805
:1030100048290208172A00081F0003FF5E5E5EFFB2
:10302000595959FF00FF90FFD7802B4573A24045A7
:10303000A214524561EE5E458A9B6645E8E6684506
:1030400017FD65459C48020878FC0020FC675E453A
:103050003603534566EA4445B762354550C12545B8
:10306000C050174559370B457B60024528D5FA44B7
:103070004836F9448DB3FF448DB20645875F10454D
:10308000BBD81B454AE927452748334574B23C4520
:103090007D0543455256454525054345F7CA3B4501
:1030A00073C02F45855D1F458D710B45D829EA44B6
:1030B000B729BB4462B68C446F4F4344ED90F24352
:1030C00022797F4328DCD342E7F032428D319442AB
:1030D0001D0F3E43E969BF43EF611F440AD76944AE
:1030E00037E09C44B7C8C444D5F7E9446A060545AF
:1030F0004D901145A4F41945C1E81D45D3801D45E7
:10310000292D194548B01145AB0E0845C7F2FA44C0
:103110008B6AE6442301D54436F2C844EB09C44423
:10312000E27EC744B8D7D3443DDEE844A3D002458D
:103130008742144572B02745F6D33B45E64C4F45D0
:10314000D2BB604594DC6E45F39E7845713B7D456E
:10315000AF427C4539A675450EBA6945BA2E594528
:103160008A044545B6782E450DEE1645A8A5FF44C0
:10317000C00BD544E779B044AEDC9344B27E8044C2
:103180003FE46D44BB106E4409B17F4413D48F44B7
:1031900042E8A44468A9BC44FD84D4447DF6E944D3
:1031A000FDBAFA44BF7F024537C30345B9E0004585
:1031B00071DDF344FDBFDE4442F6C344C796A54427
:1031C0005618864475425044EFA41C44AE4CEC4360
:1031D0003980C143478BBE432752E643C15A1C4442
:1031E0001FED660A204609F0CBFE1FED670A204658
:1031F00009F0C6FE1FED690A204609F0C1FE1FED69
:103200006A0A204609F0BCFE1FED6C0A204609F050
:10321000B7FE1FED6D0A204609F0B2FE1FED6F0AE2
:10322000204609F0ADFE1FED700A204609F0A8FE09
:103230001FED720A204609F0A3FE1FED730A204617
:1032400009F09EFE1FED750A204609F099FE1FED5C
:10325000760A204609F094FE1FED780A204609F010
:103260008FFE1FED790A204609F08AFE1FED7B0ACA
:10327000204609F085FE1FED7C0A204609F080FEFD
:103280001FED7E0A204609F07BFE1FED7F0A2046D7
:1032900009F076FE1FED810A204609F071FE1FED50
:1032A000820A204609F06CFE1FED840A204609F0D0
:1032B00067FE1FED850A204609F062FE1FED870AB2
:1032C000204609F05DFE1FED880A204609F058FEF1
:1032D0001FED8A0A204609F053FE1FED8B0A204697
:1032E00009F04EFE1FED8D0A204609F049FE1FED44
:1032F0008E0A204609F044FE1FED900A204609F090
:103300003FFE1FED910A204609F03AFE1FED930A99
:10331000204609F035FE1FED940A204609F030FEE4
:103320001FED960A204609F02BFE1FED970A204656
:1033300009F026FE1FED990A204609F021FE1FED37
:103340009A0A204609F01CFE1FED9C0A204609F04F
:1033500017FE1FED9D0A204609F012FE1FED9F0A81
:10336000204609F00DFE1FEDA00A204609F008FED8
:103370001FEDA20A204609F003FE1FEDA30A204616
:1033800009F0FEFD1FEDA50A204609F0F9FD1FED2D
:10339000A60A204609F0F4FD1FEDA80A204609F010
:1033A000EFFD1FEDA90A204609F0EAFD1FEDAB0A6B
:1033B000204609F0E5FD1FEDAC0A204609F0E0FDCE
:1033C0001FEDAE0A204609F0DBFD1FEDAF0A2046D7
:1033D00009F0D6FD1FEDB10A204609F0D1FD1FED21
:1033E000B20A204609F0CCFD1FEDB40A204609F0D0
:1033F000C7FD1FEDB50A204609F0C2FD1FEDB70A53
:10340000204609F0BDFD1FEDB80A204609F0B8FDC1
:103410001FEDBA0A204609F0B3FD1FEDBB0A204696
:1034200009F0AEFD1FEDBD0A204609F0A9FD1FED14
:10343000BE0A204609F0A4FD1FEDC00A204609F08F
:103440009FFD1FEDC10A204609F09AFD1FEDC30A3A
:10345000204609F095FD1FEDC40A204609F090FDB5
:103460001FEDC60A204609F08BFD1FEDC70A204656
:1034700009F086FD1FEDC90A204609F081FD1FED08
:10348000CA0A204609F07CFD1FEDCC0A204609F04F
:1034900077FD1FEDCD0A204609F072FD1FEDCF0A22
:1034A000204609F06DFD1FEDD00A204609F068FDA9
:1034B0001FEDD20A204609F063FD1FEDD30A204616
:1034C00009F05EFD1FEDD50A204609F059FD1FEDFC
:1034D000D60A204609F054FD1FEDD80A204609F00F
:1034E0004FFD1FEDD90A204609F04AFD1FEDDB0A0A
:1034F000204609F045FD1FEDDC0A204609F040FD9D
:103500001FEDDE0A204609F03BFD1FEDDF0A2046D5
:1035100009F036FD1FEDE10A204609F031FD1FEDEF
:10352000E20A204609F02CFD1FEDE40A204609F0CE
:1035300027FD1FEDE50A204609F022FD1FEDE70AF1
:10354000204609F01DFD1FEDE80A204609F018FD90
:103550001FEDEA0A204609F013FD1FEDEB0A204695
:1035600009F00EFD1FEDED0A204609F009FD1FEDE3
:10357000EE0A204609F004FD1FEDF00A204609F08E
:10358000FFFC1FEDF10A204609F0FAFC1FEDF30ADB
:10359000204609F0F5FC1FEDF40A204609F0F0FC86
:1035A0001FEDF60A204609F0EBFC1FEDF70A204656
:1035B00009F0E6FC1FEDF90A204609F0E1FC1FEDD9
:1035C000FA0A204609F0DCFC1FEDFC0A204609F04F
:1035D000D7FC9FEDE30A204609F0D2FC9FEDE10AFB
:1035E000204609F0CDFC9FEDE00A204609F0C8FC1A
:1035F0009FEDDE0A204609F0C3FC9FEDDD0A204660
:1036000009F0BEFC9FEDDB0A204609F0B9FC9FEDF6
:10361000DA0A204609F0B4FC9FEDD80A204609F0EA
:10362000AFFC9FEDD70A204609F0AAFC9FEDD50A12
:10363000204609F0A5FC9FEDD40A204609F0A0FC25
:103640009FEDD20A204609F09BFC9FEDD10A20464F
:1036500009F096FC9FEDCF0A204609F091FC9FED02
:10366000CE0A204609F08CFC9FEDCC0A204609F0DA
:1036700087FC9FEDCB0A204609F082FC9FEDC90A2A
:10368000204609F07DFC9FEDC80A204609F078FC31
:103690009FEDC60A204609F073FC9FEDC50A20463F
:1036A00009F06EFC9FEDC30A204609F069FC9FED0E
:1036B000C20A204609F064FC9FEDC00A204609F0CA
:1036C0005FFC9FEDBF0A204609F05AFC9FEDBD0A42
:1036D000204609F055FC9FEDBC0A204609F050FC3D
:1036E0009FEDBA0A204609F04BFC9FEDB90A20462F
:1036F00009F046FC9FEDB70A204609F041FC9FED1A
:10370000B60A204609F03CFC9FEDB40A204609F0B9
:1037100037FC9FEDB30A204609F032FC9FEDB10A59
:10372000204609F02DFC9FEDB00A204609F028FC48
:103730009FEDAE0A204609F023FC9FEDAD0A20461E
:1037400009F01EFC9FEDAB0A204609F019FC9FED25
:10375000AA0A204609F014FC9FEDA80A204609F0A9
:103760000FFC9FEDA70A204609F00AFC9FEDA50A71
:10377000204609F005FC9FEDA40A204609F000FC54
:103780009FEDA20A204609F0FBFB9FEDA10A20460F
:1037900009F0F6FB9FED9F0A204609F0F1FB9FED33
:1037A0009E0A204609F0ECFB9FED9C0A204609F09A
:1037B000E7FB9FED9B0A204609F0E2FB9FED990A8B
:1037C000204609F0DDFB9FED980A204609F0D8FB62
:1037D0009FED960A204609F0D3FB9FED950A2046FF
:1037E00009F0CEFB9FED930A204609F0C9FB9FED3F
:1037F000920A204609F0C4FB9FED900A204609F08A
:10380000BFFB9FED8F0A204609F0BAFB9FED8D0AA2
:10381000204609F0B5FB9FED8C0A204609F0B0FB6D
:103820009FED8A0A204609F0ABFB9FED890A2046EE
:1038300009F0A6FB9FED870A204609F0A1FB9FED4A
:10384000860A204609F09CFB9FED840A204609F079
:1038500097FB9FED830A204609F092FB9FED810ABA
:10386000204609F08DFB9FED800A204609F088FB79
:103870009FED7E0A204609F083FB9FED7D0A2046DE
:1038800009F07EFB9FED7B0A204609F079FB9FED56
:103890007A0A204609F074FB3C279FED780A2046FF
:1038A00009F06EFB4FF4A07318EE100A3246314651
:1038B0000097FFF70FF91CEE100A32463146FFF76A
:1038C000EFF84FF00C03ADF824304FF00D03ADF8D6
:1038D00028304FF00403ADF830300CAB4FF0060841
:1038E0000AAA1CEE100A009309A90BAB85F8D9654A
:1038F000ADF82C800AF0E9FC4FF00F03A5F8EC3589
:103900001123A5F8EE3505F6D423C5F8DC351CEEF9
:10391000101A18EE100A039306F02AFD1AEE100A88
:1039200042464146FFF7BCF84FF0FF33C5F820365A
:1039300005F6A4230693D9F80030A5F824662BB920
:103940004F4B504AAE2150481CF096FF4F4B1B88FE
:10395000012B00F29F804E4B4A4AAF21F3E700BF94
:10396000C445594402759344ED88C044974FF144CF
:103970008E7A1145B14A2945F7B83E4575925045B2
:10398000AFE65D45AE186645C2E96845157D6645FA
:10399000DE535F4578425445375F46454EEC364529
:1039A000833E274595A218456A430C4503130345FA
:1039B000D46FFB443D01F944C5BBFE4462E40545B8
:1039C0008E550F45FDAE1A4525BF2645CA3D3245E9
:1039D0004BE63B45BA914245CC4E4545AF75434514
:1039E00054B63C45FD1F31458A21214562820D4573
:1039F0002FA9EE4484C2BF4429219144E13D4B44A8
:103A0000DAA5FF43803E89435B62E94269CE3A42D0
:103A100024A68642C9322F43FB88B44321A118440F
:103A2000AF436244BEF1984457FAC044AD89E644BE
:103A3000BB9A034583841045F854194551B81D4578
:103A400083B91D4537C0194591871245800E094538
:103A50009205FD44F650E844447FD6449DD4C944C1
:103A6000D929C44480C5C6442140D2441276E644D4
:103A7000EF430145A0741245CEBE2545E6DF39452A
:103A8000AD250208EF2502081D2602087CFC002057
:103A900064260208E44B0121186800F035FC04217B
:103AA0000346E24A06980FF037FA069AC5F82C2624
:103AB0001AEE100A0AF0A2FADD4A0C921AEE100A67
:103AC0000CA9ADF834600AF0B6FA1AEE101A18EE26
:103AD000100A06F04DFC1CEE900A3246C821FEF793
:103AE000DFFF08234FF00C010DF12C0EADF8241070
:103AF0004FF00D00ADF82C30ADF830300CA9734606
:103B00000DF1280E7246ADF8280000911CEE900AC7
:103B100009A90AF0DAFB4FF00F01A5F86816A5F81D
:103B20006A160399C5F8581618EE100A1CEE901A7A
:103B300006F01EFC1AEE900A42469121FEF7B0FFF5
:103B40004FF0FF3ED9F80030C5F89CE605F6AC2EE4
:103B5000A5F8A066CDF818E0002B3FF4F1AEB5490A
:103B60000B88062B7FF6F7AEAF4B4146186800F086
:103B7000CBFBAE4A0346052106980FF0CDF9069817
:103B8000C5F8A8061AEE900A0AF038FA0DF1300EC0
:103B90004FF005007146A64AADF834001AEE900ABF
:103BA0000C920AF048FA1AEE901A18EE100A06F073
:103BB000DFFB4FF00C0CADF82CC04FF00D0CADF846
:103BC00030C00DF1300C62460DF12C0C614618EE40
:103BD000900AFEF78BFF049832463146FEF760FFED
:103BE0000DF1300E924A0C924FF0030C71461BEE11
:103BF000900AADF834C00AF01EFAB5F9B626B5F948
:103C0000B4161BEE900AFEF758FFD9F8003005F500
:103C10002D68002B3FF494AE86490B88042B7FF669
:103C20009AAE814B0421186800F06EFB7F4A034670
:103C3000022140460FF070F931463B4603221BEE4D
:103C4000900A0097C5F84C87FEF744FF4FF0FF3EFF
:103C5000794BC5F850E718EE900AC5F85437FEF7CF
:103C60004FFE32463B4618EE900A00974FF48271A1
:103C7000FEF730FF05F6E423C5F8DC3618EE901A9F
:103C800018EE100A06F074FB1BEE100A182295219C
:103C9000FEF706FFD9F80030A5F88C674FF0FF3724
:103CA000C5F8887705F6B626002B3FF449AE614982
:103CB0000B88082B7FF64FAE5B4B0821186800F08D
:103CC00023FB5A4A03460D2130460FF025F91BEE1F
:103CD000100AC5F894670AF091F9554A0C920CAA9B
:103CE0004FF0070311461BEE100AADF834300AF00E
:103CF000A2F91BEE101A18EE100A06F039FB1DEEA1
:103D0000100A36229C21FEF7CBFE4FF00002ADF8E0
:103D100030200CAA11461DEE100A0AF0B0FB1DEE71
:103D2000101A18EE100A06F023FBB42300933C226D
:103D30004FF4A07300215846FEF7CCFE4FF000026E
:103D400016461DEE900A85F8E9274FF4827100228D
:103D5000FEF7A6FE0CAB0DF12C0E009373460DF191
:103D6000280E72460DF1240E0E274FF00108714601
:103D70001DEE900A85F8156802264FF05509ADF83A
:103D80002C70ADF83070ADF82480ADF828600AF0E2
:103D90009CFA039BC5F818381DEE901AA5F82878F0
:103DA000A5F82A78584685F8229806F0E1FA1EEE22
:103DB000100A3C224FF48271FEF772FE0CAB0DF13B
:103DC0002C0E009373460DF1280E72464FF00F0132
:103DD0000DF1240E1EEE100AADF82C10ADF83010C7
:103DE0007146ADF82480ADF828600AF06EFA039BA6
:103DF000C5F854381EEE101AA5F86478A5F8667850
:103E0000584685F85E9806F0B3FA1EEE900A142222
:103E10007A21FEF745FE4FF0030CADF82CC0ADF84B
:103E200030C00CAB0AE000BF84FC0020B6260208BC
:103E3000B42002087CFC00200A0A0AFF0DF12C0CB9
:103E4000009363460DF1280C62460DF1240C614687
:103E50001EEE900A1627ADF82480ADF828600AF00F
:103E600034FA039BC5F890384FF00F01A5F8A078FD
:103E7000A5F8A21858461EEE901A85F89A9806F0F2
:103E800077FA1FEE100A1422B621FEF709FE4FF052
:103E90000500ADF82C00ADF830000CAB0BA800937A
:103EA00003460AA8024609A801461FEE100AADF80B
:103EB0002480ADF828600AF008FA039BA5F8DC78A6
:103EC0004FF00F07C5F8CC381FEE101A5846A5F86A
:103ED000DE7885F8D69806F04BFA1FEE900A50224D
:103EE0009821FEF7DDFD4FF007034FF00002ADF81B
:103EF0002C30ADF830300CAB1FEE900A85F8052958
:103F000000930AAA0BAB09A9ADF82480ADF828608C
:103F10000AF0DBF91023A5F81A39039BC5F8083914
:103F20001FEE901A5846A5F8187985F8129906F0F0
:103F30001FFA19EE100A80226FF01201FEF7B0FD91
:103F40000A23ADF828300B23ADF82C30092319EEE5
:103F5000100AADF830300BAA0CAB0AA906F0DAFD56
:103F600000234FF49B72CDE9003219EE100A33465C
:103F70001322314606F042FC40F2431219EE100AB9
:103F80006FF4A17106F0A7FB19EE100A002106F0EC
:103F90002EFB05F6F42319EE101AC5F8143A58460C
:103FA00006F0E6F90022F0231146009350464FF444
:103FB000A073FEF78FFD224BC5F8A03A0799504633
:103FC00007F0C4FE4FF4F0624FF4A051504608F0E1
:103FD000CFF94FF4F8624FF4A151504608F0D3F9ED
:103FE000D5F8583A402B05D04023C5F8583A5046EA
:103FF00008F0B0F85046002108F0D0F9281D19EE5D
:10400000901A039006F0B4F90599039806F0B0F9F8
:104010000398214606F0ACF918EE101A039806F042
:10402000A7F90398594606F0A3F90398514606F0FC
:104030009FF928460FB0BDEC108BBDE8F08F00BF94
:104040000D0DA1FF7047000030B5164D2C78BFF361
:104050005B8F14F001048DB020D128461CF0DFFBEB
:10406000E0B13F230793104B0693104B10491148C2
:104070000894CDE9044301220423CDE9013202234F
:10408000009315220A23CDE909440394FEF762FB4D
:1040900028461CF0D0FB08481CF00CFC05480DB06D
:1040A00030BD00BF402E0020F46F0208B029020886
:1040B000146E0208442E002045400008704700009E
:1040C00030B5154D2C78BFF35B8F14F001048DB023
:1040D0001FD128461CF0A3FBD8B13F2307930F4BF9
:1040E00006930F4B05930123CDE903430293042369
:1040F000CDE900430B490C48089414230922CDE96B
:104100000944FEF727FB28461CF095FB07481CF0E6
:10411000D1FB05480DB030BD6C2E0020F86F0208B1
:10412000B42902083C6F0208702E0020BD40000830
:104130007047000030B5154D2C78BFF35B8F14F03D
:1041400001048DB01ED128461CF069FBD0B13F237D
:1041500007930F4B06930F4B0F4910480894042206
:10416000CDE904430123CDE901230093CDE90944BE
:1041700028230394FEF7EEFA28461CF05CFB08485F
:104180001CF098FB05480DB030BD00BF982E0020F4
:1041900010700208B8290208BC6F02089C2E00208B
:1041A0003141000800207047002070470EB403B56D
:1041B00003AB002153F8042B01930CF001FD02B076
:1041C0005DF804EB03B070470CB407B504AB53F8CB
:1041D000042B01930CF0F4FC03B05DF804EB02B087
:1041E00070470000C36B10B5044673B3038E2BB940
:1041F000184B194ABF2119481CF03EFBC38D00EB38
:1042000043035B8B0BB30EF0CDF8238E012B03D849
:10421000134B144AC421EEE7E28D531C9BB2092BC9
:10422000194688BFA3F10A0104EB410140F63F1093
:10423000498B814209D10A2B04EB420228BF00239B
:1042400004EB4303508B588351832046BDE8104054
:104250000DF08CBFBC290208C5290208702A02088B
:10426000BA2A0208C82A02080DF03ABF10B586B073
:1042700002AC84E806001A460AAB05930193099B39
:1042800000932146089B0BF030FA06B010BD0000E9
:1042900038B518BB124B13481B681349B3B11A68E1
:1042A0009C681A4402605A681A440A601C440F4B06
:1042B00000221A8000F038F8054600F033F80C4B65
:1042C0001C600C4B1D600C4B188007E00B4B03600F
:1042D0000B4B0B600B4B1C68002CE8D138BD00BFAA
:1042E000C42E0020C82E0020CC2E0020D02E00206E
:1042F00078FC002080FC00207CFC00203870020844
:104300001470020894700208044B1B6853F82100D3
:10431000034B1B6803EB4000704700BFCC2E00200E
:10432000C82E00200920704700487047D42E002076
:1043300010B5FFF7C5FE044C2060FFF7FBFE606080
:10434000FFF782FEA06010BDD42E0020704710B58C
:104350004FF4AC7104461CF060FA204610BD10B555
:104360000446D0F8540100F012F82046BDE8104091
:104370000BF010BD10B50446FEF7C6F8014B2360E4
:10438000204610BDA42B020800220260704770472F
:10439000704704387047704710B5102104461CF070
:1043A0003CFA204610BDA0F10400F5E710B500224C
:1043B0008260044AC16002F1080420320460426055
:1043C00010BD00BFE02B020870477047FEF72ABA05
:1043D00090F8E93783F0010380F8E93700F2C47000
:1043E0000CF00FBD0F4B597A012910B5044610D0BF
:1043F000022912D039B901225A720B4A022104F55E
:104400002D600EF089FD04F2AC60BDE810400CF0A8
:10441000F8BC0221054A5972F1E700225A72044A97
:10442000EDE700BFB8600120082C02080A2C020842
:104430000C2C020810B541F6D05104461CF0EDF9E1
:10444000204610BD154B1B7E012B10B525D11449FC
:1044500014484FF0FF33042203F054FC1249114872
:104460004FF0FF33042203F04DFC0F490D484FF08D
:10447000FF33042203F046FC0B490A484FF0FF3398
:10448000042203F03FFCBDE81040084905484FF006
:10449000FF3342F6E06203F035BC10BDB860012086
:1044A000386001204C5F01200E2C0208942F01205F
:1044B00010B50446FEF7B4FB084B236041F6C45226
:1044C0000023A35241F6C6522046A35441F6C852D7
:1044D000A35041F6CC52A35210BD00BF202C0208BD
:1044E00041F26F73994204DDA1F5BB51103988B2D6
:1044F00070470029BCBF01F5BB511031F7E7000040
:104500002DE9F84300F5EE56DFF85480124F0546CA
:104510006FF0590408367968D8F8003001EBC10112
:1045200001EB430197F9023003FB04431944316066
:104530002846FFF7D5FF094B05F1980933F810100D
:104540000134484608F018FD5A2CE4D14846BDE82D
:10455000F8430CF056BC00BFB8600120942F012036
:1045600038600120F8B541F6CC532C4FC25C397845
:104570002B4D0132C254044611B30026C6542949BA
:10458000294842F6E0621CF0F5F92046FFF7B8FF33
:10459000244842F6E06231460CF080FD6B7A022B33
:1045A00006D1012221482A764FF4804101F0EEFB2A
:1045B0001E4800224FF4005101F0E8FB00233B703D
:1045C0002A7E0023012A1ABF84F8D935012384F8F2
:1045D000D92504F2B45084F8153604F5BE660CF003
:1045E00010FC30460CF00DFC2A7EAAB941F6CC53E3
:1045F000E15C022910D9E254FDF7FAF84FF6E853CE
:1046000000BF013BFCD10A4A136843F00403136066
:10461000BDE8F840FDF71EB9F8BD00BF302E002000
:10462000B860012074FF0020942F01200018024080
:10463000003C014037B500230D4D80F80539044694
:1046400000F50E606B600CF0DCFB2046FFF758FFB6
:10465000084B696804F61C10012201901A7005F0DD
:10466000C6FF019803B0BDE830400CF0CABB00BFE4
:10467000B8600120E42E002073B52C4D95F902306E
:104680005A1C6B6804469B1A0D21294A6B6000F680
:10469000B6200EF041FC04F5EB600CF0B2FB6B6849
:1046A00023BB84F8053904F50E600CF0AAFB204604
:1046B000FFF726FF1F4B04F5F360002210210126AF
:1046C0001E7001900CF0CDFB01980CF09AFB6B680A
:1046D00040F2431293420FD1002384F88D3804F640
:1046E000680002B0BDE870400CF08BBB94F805394F
:1046F000002BDCD10123D4E76FF4A172934205D1E2
:10470000002384F8C93804F6A400EAE794F88D3849
:104710002BB984F88D6804F668000CF072FB94F8ED
:10472000C9380BB90123ECE702B070BDB8600120B5
:10473000132C0208E42E002073B52D4D95F902309C
:104740006A680133134404462A4A6B600D2100F65F
:10475000B6200EF0E1FB04F5EB600CF052FB6B6849
:104760002BBB84F8053904F50E600CF04AFB20469B
:10477000FFF7C6FE204B04F5F36000226FF00F0137
:1047800001261E7001900CF06CFB01980CF039FBB7
:104790006B6840F2431293420FD1002384F88D38A6
:1047A00004F6680002B0BDE870400CF02ABB94F833
:1047B0000539002BDBD10123D3E76FF4A1729342BB
:1047C00005D1002384F8C93804F6A400EAE794F878
:1047D0008D382BB984F88D6804F668000CF011FB55
:1047E00094F8C9380BB90123ECE702B070BD00BFE3
:1047F000B8600120132C0208E42E002073B52E4E61
:104800002E4A4B4204460D2100F6B62073600EF08E
:1048100083FB04F5EB600CF0F4FA73686BBB84F86F
:10482000053904F50E600CF0ECFA726840F243139F
:104830009A424FF0000326D184F88D3804F66800C0
:104840000CF0DFFA1E4D2A7812B92046FFF758FE09
:104850007168B4F99E27C1EB013109019C3104F55F
:10486000F360002309B201902B70FDF7ACFF0198B3
:1048700002B0BDE870400CF0C4BA94F80539002BC2
:10488000D3D10123CBE76FF4A1718A4204D184F81C
:10489000C93804F6A400D3E794F88D3833B901235E
:1048A00084F88D3804F668000CF0ABFA94F8C93837
:1048B000002BC7D10123EAE7B8600120132C0208BE
:1048C000E42E002013B5154A9378516801335BB28A
:1048D00093700901013391FBF3F1114B0446196008
:1048E000C1F19C0100F5F360B4F99E27019009B273
:1048F000FDF769FF01980CF084FA94F8153833B984
:10490000012384F8153804F5FE600CF07AFA20468D
:1049100002B0BDE81040FFF7F3BD00BFB860012052
:10492000E02E002037B5174D95F90230002B0446D4
:1049300019DD6968144A013BDBB2AB700901013330
:1049400091FBF3F31360C3F19C0300F5F360B4F93A
:104950009E27019019B2FDF736FF01980CF051FA2D
:104960002046FFF7CDFD95F9023043B904F5FE600E
:1049700084F8153803B0BDE830400CF042BA03B0FB
:1049800030BD00BFB8600120E02E0020F02070474D
:104990004FF4A07070472920FCF7E8BF2820FCF7EF
:1049A000E5BF08B5FCF7B6FFCA20FCF7DFFFC32060
:1049B000FCF7C0FF0820FCF7BDFF5020FCF7BAFF52
:1049C000CF20FCF7D3FF0020FCF7B4FFC120FCF799
:1049D000B1FF3020FCF7AEFFED20FCF7C7FF6420ED
:1049E000FCF7A8FF0320FCF7A5FF1220FCF7A2FFAD
:1049F0008120FCF79FFFE820FCF7B8FF8520FCF73B
:104A000099FF0020FCF796FF7820FCF793FFCB205E
:104A1000FCF7ACFF3920FCF78DFF2C20FCF78AFF58
:104A20000020FCF787FF3420FCF784FF0220FCF70E
:104A300081FFF720FCF79AFF2020FCF77BFFEA209C
:104A4000FCF794FF0020FCF775FF0020FCF772FFD5
:104A5000B120FCF78BFF0020FCF76CFF1B20FCF75C
:104A600069FFB620FCF782FF0A20FCF763FFA22053
:104A7000FCF760FFC020FCF779FF1020FCF75AFF1D
:104A8000C120FCF773FF1020FCF754FFC520FCF792
:104A90006DFF4520FCF74EFF1520FCF74BFFC720AC
:104AA000FCF764FF9020FCF745FF3620FCF75EFF23
:104AB000C820FCF73FFFF220FCF758FF0020FCF76E
:104AC00039FFB020FCF752FFC220FCF733FFB620BD
:104AD000FCF74CFF0A20FCF72DFFA720FCF72AFF6C
:104AE0002720FCF727FF0420FCF724FF2A20FCF7EF
:104AF0003DFF0020FCF71EFF0020FCF71BFF0020FD
:104B0000FCF718FFEF20FCF715FF2B20FCF72EFF1A
:104B10000020FCF70FFF0020FCF70CFF0120FCF742
:104B200009FF3F20FCF706FFF620FCF71FFF0120DE
:104B3000FCF700FF0020FCF7FDFE0620FCF7FAFE64
:104B40002C20FCF713FFC820FCF75EFF2620FCF7A3
:104B50000DFF0120FCF7EEFEE020FCF707FF0F2021
:104B6000FCF7E8FE2920FCF7E5FE2420FCF7E2FE36
:104B70000C20FCF7DFFE0E20FCF7DCFE0920FCF722
:104B8000D9FE4E20FCF7D6FE7820FCF7D3FE3C2061
:104B9000FCF7D0FE0920FCF7CDFE1320FCF7CAFE7F
:104BA0000520FCF7C7FE1720FCF7C4FE1120FCF718
:104BB000C1FE0020FCF7BEFEE120FCF7D7FE00207E
:104BC000FCF7B8FE1620FCF7B5FE1B20FCF7B2FE82
:104BD0000420FCF7AFFE1120FCF7ACFE0720FCF729
:104BE000A9FE3120FCF7A6FE3320FCF7A3FE4220ED
:104BF000FCF7A0FE0520FCF79DFE0C20FCF79AFEBA
:104C00000A20FCF797FE2820FCF794FE2F20FCF7E3
:104C100091FE0F20FCF78EFE1120FCF7A7FEC820A6
:104C2000FCF7F2FE2920FCF7A1FEBDE808402C208D
:104C3000FCF79CBE08B5FCF76DFE0321D320FCF702
:104C4000B1FE80B208BD10B5C4B2022203212046D5
:104C5000FCF716FE0A20FCF75BFE2046002203212B
:104C6000FCF70EFEBDE810400220FCF751BE38B53F
:104C70000446E4B2FCF702FE00212046FCF718FED1
:104C8000012105462046FCF713FE40EA052080B2CC
:104C900038BD10B5C4B240212046FCF709FE03061A
:104CA00007D54C212046FCF703FE003818BF012031
:104CB00010BD01224B212046FCF7E2FD20460022D8
:104CC0004B21FCF7DDFD0020F2E773B50423C4B2ED
:104CD0000E461546D7210DEB03022046FCF702FED7
:104CE000019B1BBA1A0DC3F30B23328020462B8085
:104CF00001224B21FCF7C4FD00224B212046FCF78A
:104D0000BFFD02B070BD000010B50A4B1A7890428A
:104D100004460DD0597888420AD00AB141B901221F
:104D20009C54FCF7ABFD2046BDE81040FFF78BBF5D
:104D300010BD00BFE52E002010B5C4B209212046E9
:104D4000FCF7B6FD40F00100C2B209212046BDE8E3
:104D50001040FCF795BD10B5C4B209212046FCF700
:104D6000A7FD092100F0FE022046BDE81040FCF737
:104D700087BD38B5C4B20D4620460A21FCF798FD20
:104D800040EA0502D2B220460A21BDE83840FCF7CD
:104D900077BD07B50190FCF772FD01981F21FFF761
:104DA000E8FF019803B05DF804EBFFF7C5BF38B525
:104DB000C4B20D4620460A21FCF77AFD20EA05021E
:104DC000D2B220460A21BDE83840FCF759BD10B5E3
:104DD0000446FFF7C0FF20461F21BDE81040FFF743
:104DE000E6BF10B5C0B20C460B21FCF761FD2040B8
:104DF00010BD1F21FFF7F5BF0A46C0B20B21FCF71B
:104E00003FBD1F21FFF7F8BF38B5C4B20D4620469D
:104E10001721FCF74DFD20EA0502D2B220461721EA
:104E2000BDE83840FCF72CBD70B5C4B2064604217D
:104E30002046FCF73DFD042100F0FB02054620461C
:104E4000FCF71EFD3046F021FFF7DEFF05F0F8020B
:104E500020460421FCF714FD492220212046FCF7BE
:104E60000FFD0220FCF754FD204601222121FCF712
:104E700007FD20469A224121FCF702FD204601222F
:104E80004A21FCF7FDFC204601224B21FCF7F8FCEF
:104E9000204600224B21FCF7F3FC2046012256213C
:104EA000FCF7EEFC204601225821FCF7E9FC2046E5
:104EB00001224021FCF7E4FC2046FF220B21FCF7F5
:104EC000DFFCBDE870400220FCF722BD054BD3F8A3
:104ED000882042F47002C3F888204FF000629A6084
:104EE000704700BF00ED00E008B50B4B1A6842F4B4
:104EF00000721A601A6842F480621A601A6842F4FA
:104F000080721A60032000F02BFB0520FDF78EF95C
:104F1000FCF73AFE002008BD003C0240034A044B67
:104F200011681B780B441360704700BF1C6101209F
:104F300078000020014B1868704700BF1C610120F9
:104F400038B50446FFF7F6FF631C1CBF054B1B7802
:104F5000054618BFE418FFF7EDFF431BA342FAD341
:104F600038BD00BF7800002038B50446002800F0A6
:104F70009B80056C25B9FCF727FE656484F83C50DE
:104F8000236CDB0600F18E80236C23F4885323F01E
:104F9000020343F002032364444B5A6822F4403274
:104FA0005A605A6861680A435A60236821695A68DE
:104FB00022F480725A605A6842EA01225A605A68A2
:104FC000A16822F040725A605A680A435A609A688F
:104FD000E16822F400629A609A680A439A60344950
:104FE000A26A8A4252D0996821F0706199609968EA
:104FF0000A439A609A68E16A22F040529A609A687D
:105000000A439A609A6822F002029A609A68217EA6
:1050100042EA41029A6094F82020002A3ED05A6861
:10502000616A42F400625A605A6822F460425A602F
:105030005A68013942EA41325A60DA6AE16922F477
:105040007002DA62DA6A013942EA0152DA629A6877
:1050500022F400729A609A6894F8301042EA412271
:105060009A609A68616922F480629A609A68002066
:1050700042EA81229A606064236C23F0030343F0C8
:1050800001032364002384F83C3038BD9A6822F081
:1050900070629A609A6822F04052B2E75A6822F42D
:1050A0000062C9E70120EDE70120EEE7002301409F
:1050B0000100000F13B50023019390F83C30012B41
:1050C0006CD00123026880F83C309368D9070CD576
:1050D000936813F001031AD1026C42F010020264CB
:1050E000426C42F00102426456E093682D4943F05D
:1050F000010393602C4B1B68B3FBF1F303EB4303F9
:105100000193019B002BE3D0019B013BF8E7036C6B
:10511000264C23F4E06323F0010343F4807303641B
:1051200053685B0541BF036C23F4405343F4805341
:105130000364036C13F480531CBF436C23F0060319
:1051400043646FF02201002380F83C30116018495D
:10515000486810F01F0019D1A24206D0154B9A42A0
:105160000DD14B6813F01F0F07D1906810F040501D
:1051700016D1936843F08043936002B010BD0E4B8C
:105180009A42FAD14B6813F0100FEDE7A24207D113
:10519000906810F04050ECD01846EEE70220ECE7A3
:1051A0000020EAE740420F00740000200020014088
:1051B00000230140002101400022014090F83C30D2
:1051C000012B14D003689A6822F001029A609B6850
:1051D000DB0707D4036C23F4885323F0010343F067
:1051E00001030364002380F83C3018467047022016
:1051F0007047704770477047F7B50023019390F8E8
:105200003C30012B69D0012380F83C300D680368E5
:105210008E68092DACB234D904EB4402DF681E3A23
:105220004FF0070C0CFA02FC27EA0C07DF60DF687E
:1052300006FA02F23A43DA604968062901EB810274
:105240002FD8596B053A1F26964021EA060159636B
:10525000596B04FA02F20A435A63304A93420AD164
:10526000122D3CD12E4B5A6822F400025A605A6823
:1052700042F480025A60002380F83C30184603B0A4
:10528000F0BD1F6905EB45024FF0070C0CFA02FC5C
:1052900027EA0C071F611F6906FA02F23A431A61F6
:1052A000CAE70C294FF01F010BD81E6B233A91401F
:1052B00026EA01011963196B04FA02F20A431A6320
:1052C000CBE7DE6A413A914026EA0101D962D96A08
:1052D00004FA02F20A43DA62BFE70220CFE7114B79
:1052E0009D4201D0112DC6D10D4B5A6822F4800287
:1052F0005A605A6842F400025A600A4B9D42BAD181
:10530000094B0A4A1B68B3FBF2F20A235343019389
:10531000019B002BAFD0019B013BF8E7002001402F
:1053200000230140120000107400002040420F00D2
:10533000806B40230364436C43F004034364FFF732
:105340005ABF806BFFF756BF836B1A6C12F0500F79
:1053500023D11A6C42F400721A641A68916811F031
:10536000405F17D1197EA9B9D16A11F4700F02D02C
:10537000916849050ED4516821F0200151601A6CE2
:1053800022F480721A641A6CD2045EBF1A6C42F066
:1053900001021A641846FFF72CBF9B6BDB6C1847A1
:1053A00037B513460022019290F83C20012A0446AA
:1053B0006BD00568012280F83C20AA68D0070CD584
:1053C000A86810F001001BD1236C43F01003236484
:1053D000636C43F00103636451E0AA6842F0010288
:1053E000AA602C4A10682C4AB0FBF2F000EB400097
:1053F0000190019A002AE3D0019A013A0192F8E75C
:10540000206C20F4E06020F0010040F48070206403
:105410006A68520541BF206C20F4405040F480502F
:105420002064226CA06B12F480521CBF626C22F0CC
:1054300006026264002284F83C20184AC263184ABB
:105440000264184AC2646FF002022A606A6842F07D
:1054500080626A6094F83050134A95B1556845F4FB
:10546000005555600A46114900F072F923689868A2
:1054700010F040500BD19A6842F080429A6003B01D
:1054800030BD556825F40055EBE70220F7E7002012
:10549000F5E700BF7400002040420F0049530008A8
:1054A0004353000831530008002301400823014002
:1054B00010B590F83C30012B044625D0012380F82C
:1054C0003C3003689A6822F001029A609B68DB070F
:1054D00018D40E4A806B536823F40053536000F0D5
:1054E00071F92268536823F080635360236C23F4BE
:1054F000885323F0010343F001032364002384F85D
:105500003C3010BD0020F9E70220FAE700230140FB
:1055100010B590F83C30012B1DD0104B5A6822F08A
:105520001F025A605A680C6822435A605A6822F473
:1055300040425A605A684C6822435A605A6822F4C2
:1055400070625A605A6889680A435A60002380F87A
:105550003C30184610BD0220FCE700BF002301408C
:105560000749CA6822F4E0620302120403F4E0630C
:10557000120C134343F0BF6343F40033CB60704716
:1055800000ED00E0164B30B5DC68C4F30224C4F132
:105590000705231D042D28BF0425062B4FF0FF33DC
:1055A0008CBF033C002403FA05F521EA0501A34062
:1055B00022EA0302A140002841EA0203ACBF00F145
:1055C0006040084A4FEA0313B8BF00F00F00DBB297
:1055D000AABF00F56140135480F8003330BD00BF0E
:1055E00000ED00E014ED00E0002808DB4209012393
:1055F00000F01F0003FA00F0014B43F8220070474F
:1056000000E100E010B5044650B1437903F0FF0219
:1056100013B90271FCF76EFB01236371002010BD0A
:105620000120FCE7036810B5084C0246D9B21039D6
:105630001820B1FBF0F0205CD06523F47F7020F0DF
:1056400003005F2988BF0430906510BD882C0208D4
:1056500070B50446FFF76EFC0546002C73D002239C
:1056600084F835302268002384F83430136823F03E
:105670000103136021680B68D8072FD40B68334DE2
:10568000A0691D40D4E901231343E2681343226952
:10569000134362691343E26903431343226A1343CA
:1056A000626A042A43EA050302BFD4E90B56354374
:1056B0002B430B604B69042A23F0070343EA0203E0
:1056C00033D1A26AE56A13437DB390B9012A21D090
:1056D00032F0020229D1EA0127D51EE0FFF72AFCA9
:1056E000401B0528C6D920236365032084F83500B4
:1056F00070BDB0F5005F14D1032A16D801A050F890
:1057000022F000BF1B570008D75600081B5700089F
:1057100015570008B5F1C07F07D14023636501200C
:10572000E4E7022AF9D9032AD5D04B612046FFF7D6
:1057300079FFE26D3F239340836000200123606581
:1057400084F83530D4E70120D2E700BF3F8010F065
:1057500070B590F83440866D012C31D0012480F86A
:10576000344090F83540012C4FF000054FF0020412
:1057700024D180F8354004684565256825F48025E6
:10578000256063608368402B0EBFA260A160E26069
:10579000C26D08BFE1603F239340B360236843F0CC
:1057A00016032360036C1BB1236843F008032360D6
:1057B000236843F001032360002070BD80F834505B
:1057C0000220FAE770B50446866DFFF7B3FB94F844
:1057D0003530022B054606D080236365002384F80C
:1057E0003430012070BD23681A6822F016021A6056
:1057F0005A6922F080025A61226C0AB9A26C1AB16D
:105800001A6822F008021A601A6822F001021A606F
:1058100023681B6813F001030AD1E16D3F228A401F
:10582000B260012284F8352084F834301846D9E774
:10583000FFF780FB401B0528EAD92023636503207E
:10584000002384F8350084F83430CBE7F7B5002323
:1058500001935C4B856D1F68C36D2E6808229A40CA
:10586000324204460CD001680868400708D5086831
:1058700020F004000860AA60626D42F001026265D7
:1058800001229A40324208D021684969090641BF85
:10589000AA60626D42F00202626504229A403242BE
:1058A00008D021680968880741BFAA60626D42F08C
:1058B0000402626510229A40324210D023681968AF
:1058C00009070CD5AA601A68500337D51B6819035D
:1058D00001D4236C00E0A36C0BB120469847E16D26
:1058E00020228A4032423AD023681868C60636D54C
:1058F000AA6094F83520052A1A6827D122F01602EA
:105900001A605A6922F080025A61226C0AB9A26CAC
:105910001AB11A6822F008021A603F238B40AB606C
:10592000012384F83530002384F83430236D002BB4
:1059300045D0204603B0BDE8F04018471A68D205AC
:105940005EBF1A6822F008021A60C2E7500327D52A
:105950001B68190331D4636C0BB120469847636D03
:105960006BB3636DDA0719D522684FF41653B7FB92
:10597000F3F7052384F83530136823F0010313602F
:10598000019B0133BB42019302D81368DB07F7D4B4
:10599000012384F83530002384F83430E36CC6E703
:1059A0001A6812F4807208D1196821F01001196088
:1059B000012384F8353084F83420E36BCCE703B05E
:1059C000F0BD00BF7400002010B5044630B390F85D
:1059D000393003F0FF021BB980F83820FCF7A2F938
:1059E00022686168022384F83930136823F4403355
:1059F0000B431360536BA16823F007030B435363FE
:105A0000136CE16823F47F5323F03F030B431364CB
:105A100000200123E06384F8393010BD0120FCE749
:105A200070477047036870B55E681D68F2070446EA
:105A300014D5E90512D51A6822F480721A60C26B77
:105A400042F00102C26301229A60042380F83930D7
:105A5000002380F83830436903B19847B20616D561
:105A6000AB0414D523681A6822F400521A6020226D
:105A70009A60E36B43F00203E363042384F8393054
:105A8000002384F8383063690BB12046984730070B
:105A900016D5290514D523681A6822F400621A6005
:105AA00008229A60E36B43F00403E363042384F861
:105AB0003930002384F8383063690BB120469847A9
:105AC00072070BD56B0509D523681A6822F480622A
:105AD0001A6004229A602046FFF7A2FFB00714D58F
